{
  "contractName": "Insurance",
  "abi": [
    {
      "payable": true,
      "stateMutability": "payable",
      "type": "fallback"
    },
    {
      "constant": true,
      "inputs": [],
      "name": "contract_address",
      "outputs": [
        {
          "internalType": "address",
          "name": "",
          "type": "address"
        }
      ],
      "payable": false,
      "stateMutability": "view",
      "type": "function"
    },
    {
      "constant": true,
      "inputs": [],
      "name": "id",
      "outputs": [
        {
          "internalType": "uint256",
          "name": "",
          "type": "uint256"
        }
      ],
      "payable": false,
      "stateMutability": "view",
      "type": "function"
    },
    {
      "constant": true,
      "inputs": [],
      "name": "leader_addr",
      "outputs": [
        {
          "internalType": "address",
          "name": "",
          "type": "address"
        }
      ],
      "payable": false,
      "stateMutability": "view",
      "type": "function"
    },
    {
      "constant": true,
      "inputs": [
        {
          "internalType": "uint256",
          "name": "",
          "type": "uint256"
        }
      ],
      "name": "temp_teamsData",
      "outputs": [
        {
          "internalType": "uint256",
          "name": "group_id",
          "type": "uint256"
        },
        {
          "internalType": "uint256",
          "name": "group_size",
          "type": "uint256"
        },
        {
          "internalType": "uint256",
          "name": "prem_amt",
          "type": "uint256"
        },
        {
          "internalType": "bool",
          "name": "payment_status",
          "type": "bool"
        }
      ],
      "payable": false,
      "stateMutability": "view",
      "type": "function"
    },
    {
      "constant": true,
      "inputs": [
        {
          "internalType": "uint256",
          "name": "",
          "type": "uint256"
        }
      ],
      "name": "temp_user_id",
      "outputs": [
        {
          "internalType": "address",
          "name": "",
          "type": "address"
        }
      ],
      "payable": false,
      "stateMutability": "view",
      "type": "function"
    },
    {
      "constant": true,
      "inputs": [],
      "name": "test_val",
      "outputs": [
        {
          "internalType": "uint256",
          "name": "",
          "type": "uint256"
        }
      ],
      "payable": false,
      "stateMutability": "view",
      "type": "function"
    },
    {
      "constant": true,
      "inputs": [],
      "name": "test_val1",
      "outputs": [
        {
          "internalType": "uint256",
          "name": "",
          "type": "uint256"
        }
      ],
      "payable": false,
      "stateMutability": "view",
      "type": "function"
    },
    {
      "constant": false,
      "inputs": [],
      "name": "getAddress",
      "outputs": [],
      "payable": false,
      "stateMutability": "nonpayable",
      "type": "function"
    },
    {
      "constant": true,
      "inputs": [],
      "name": "balanceOf",
      "outputs": [
        {
          "internalType": "uint256",
          "name": "",
          "type": "uint256"
        }
      ],
      "payable": false,
      "stateMutability": "view",
      "type": "function"
    },
    {
      "constant": false,
      "inputs": [
        {
          "internalType": "uint256",
          "name": "size",
          "type": "uint256"
        },
        {
          "internalType": "address",
          "name": "id_user",
          "type": "address"
        }
      ],
      "name": "enrollTeam",
      "outputs": [
        {
          "internalType": "uint256",
          "name": "",
          "type": "uint256"
        }
      ],
      "payable": true,
      "stateMutability": "payable",
      "type": "function"
    },
    {
      "constant": false,
      "inputs": [
        {
          "internalType": "uint256",
          "name": "grp_id",
          "type": "uint256"
        },
        {
          "internalType": "address",
          "name": "id_user",
          "type": "address"
        }
      ],
      "name": "joinTeam",
      "outputs": [],
      "payable": true,
      "stateMutability": "payable",
      "type": "function"
    },
    {
      "constant": false,
      "inputs": [
        {
          "internalType": "address payable",
          "name": "recepient",
          "type": "address"
        }
      ],
      "name": "sendEther",
      "outputs": [],
      "payable": false,
      "stateMutability": "nonpayable",
      "type": "function"
    },
    {
      "constant": true,
      "inputs": [],
      "name": "getBalanceCreate",
      "outputs": [
        {
          "internalType": "uint256",
          "name": "",
          "type": "uint256"
        }
      ],
      "payable": false,
      "stateMutability": "view",
      "type": "function"
    }
  ],
  "bytecode": "0x60806040526201f7c5600355600560009054906101000a900473ffffffffffffffffffffffffffffffffffffffff16600660006101000a81548173ffffffffffffffffffffffffffffffffffffffff021916908373ffffffffffffffffffffffffffffffffffffffff16021790555034801561007a57600080fd5b50610bce8061008a6000396000f3fe6080604052600436106100c25760003560e01c8063722713f71161007f5780639f117efb116100595780639f117efb1461033e578063af640d0f14610369578063f04d992c14610394578063f54107f5146103f6576100c2565b8063722713f714610265578063784ce1d114610290578063966b3514146102e7576100c2565b8063010ba34e146100c45780631f307f881461012c578063235540d7146101a757806338cc4831146101d257806341b01ba0146101e957806348c981e214610214575b005b3480156100d057600080fd5b506100fd600480360360208110156100e757600080fd5b8101908080359060200190929190505050610444565b604051808581526020018481526020018381526020018215151515815260200194505050505060405180910390f35b34801561013857600080fd5b506101656004803603602081101561014f57600080fd5b8101908080359060200190929190505050610481565b604051808273ffffffffffffffffffffffffffffffffffffffff1673ffffffffffffffffffffffffffffffffffffffff16815260200191505060405180910390f35b3480156101b357600080fd5b506101bc6104bd565b6040518082815260200191505060405180910390f35b3480156101de57600080fd5b506101e76104c3565b005b3480156101f557600080fd5b506101fe610505565b6040518082815260200191505060405180910390f35b34801561022057600080fd5b506102636004803603602081101561023757600080fd5b81019080803573ffffffffffffffffffffffffffffffffffffffff16906020019092919050505061050b565b005b34801561027157600080fd5b5061027a61055d565b6040518082815260200191505060405180910390f35b34801561029c57600080fd5b506102a5610565565b604051808273ffffffffffffffffffffffffffffffffffffffff1673ffffffffffffffffffffffffffffffffffffffff16815260200191505060405180910390f35b3480156102f357600080fd5b506102fc61058b565b604051808273ffffffffffffffffffffffffffffffffffffffff1673ffffffffffffffffffffffffffffffffffffffff16815260200191505060405180910390f35b34801561034a57600080fd5b506103536105b0565b6040518082815260200191505060405180910390f35b34801561037557600080fd5b5061037e6105b8565b6040518082815260200191505060405180910390f35b6103e0600480360360408110156103aa57600080fd5b8101908080359060200190929190803573ffffffffffffffffffffffffffffffffffffffff1690602001909291905050506105be565b6040518082815260200191505060405180910390f35b6104426004803603604081101561040c57600080fd5b8101908080359060200190929190803573ffffffffffffffffffffffffffffffffffffffff1690602001909291905050506108a8565b005b60016020528060005260406000206000915090508060000154908060010154908060020154908060040160009054906101000a900460ff16905084565b6004818154811061048e57fe5b906000526020600020016000915054906101000a900473ffffffffffffffffffffffffffffffffffffffff1681565b60085481565b306000806101000a81548173ffffffffffffffffffffffffffffffffffffffff021916908373ffffffffffffffffffffffffffffffffffffffff160217905550565b60075481565b8073ffffffffffffffffffffffffffffffffffffffff166108fc671bc16d674ec800009081150290604051600060405180830381858888f19350505050158015610559573d6000803e3d6000fd5b5050565b600047905090565b600560009054906101000a900473ffffffffffffffffffffffffffffffffffffffff1681565b6000809054906101000a900473ffffffffffffffffffffffffffffffffffffffff1681565b600047905090565b60035481565b600080600090505b6004805490508110156106205760048054806105de57fe5b6001900381819060005260206000200160006101000a81549073ffffffffffffffffffffffffffffffffffffffff0219169055905580806001019150506105c6565b506004831161089d5734600260003373ffffffffffffffffffffffffffffffffffffffff1673ffffffffffffffffffffffffffffffffffffffff168152602001908152602001600020600082825401925050819055503460078190555060036000815480929190600101919050555060048290806001815401808255809150509060018203906000526020600020016000909192909190916101000a81548173ffffffffffffffffffffffffffffffffffffffff021916908373ffffffffffffffffffffffffffffffffffffffff16021790555050600460008154811061070357fe5b9060005260206000200160009054906101000a900473ffffffffffffffffffffffffffffffffffffffff16600560006101000a81548173ffffffffffffffffffffffffffffffffffffffff021916908373ffffffffffffffffffffffffffffffffffffffff1602179055506040518060a00160405280600354815260200184815260200160288152602001600480548060200260200160405190810160405280929190818152602001828054801561081057602002820191906000526020600020905b8160009054906101000a900473ffffffffffffffffffffffffffffffffffffffff1673ffffffffffffffffffffffffffffffffffffffff16815260200190600101908083116107c6575b50505050508152602001600115158152506001600060035481526020019081526020016000206000820151816000015560208201518160010155604082015181600201556060820151816003019080519060200190610870929190610a28565b5060808201518160040160006101000a81548160ff02191690831515021790555090505061089c6104c3565b5b600354905092915050565b34600260003373ffffffffffffffffffffffffffffffffffffffff1673ffffffffffffffffffffffffffffffffffffffff16815260200190815260200160002060008282540192505081905550346008819055506001600083815260200190815260200160002060096000820154816000015560018201548160010155600282015481600201556003820181600301908054610945929190610ab2565b506004820160009054906101000a900460ff168160040160006101000a81548160ff0219169083151502179055509050506004600960010154111580156109a2575060011515600960040160009054906101000a900460ff161515145b15610a245760048190806001815401808255809150509060018203906000526020600020016000909192909190916101000a81548173ffffffffffffffffffffffffffffffffffffffff021916908373ffffffffffffffffffffffffffffffffffffffff1602179055505060046009600301908054610a22929190610b04565b505b5050565b828054828255906000526020600020908101928215610aa1579160200282015b82811115610aa05782518260006101000a81548173ffffffffffffffffffffffffffffffffffffffff021916908373ffffffffffffffffffffffffffffffffffffffff16021790555091602001919060010190610a48565b5b509050610aae9190610b56565b5090565b828054828255906000526020600020908101928215610af35760005260206000209182015b82811115610af2578254825591600101919060010190610ad7565b5b509050610b009190610b56565b5090565b828054828255906000526020600020908101928215610b455760005260206000209182015b82811115610b44578254825591600101919060010190610b29565b5b509050610b529190610b56565b5090565b610b9691905b80821115610b9257600081816101000a81549073ffffffffffffffffffffffffffffffffffffffff021916905550600101610b5c565b5090565b9056fea265627a7a72315820c03dffb1d91a4335802c80b7d98c31df1f98c507fbe5e289f2eb9fcf761483ae64736f6c63430005100032",
  "source": "pragma solidity ^0.5.0;\r\ncontract Insurance\r\n{\r\n\r\n    struct temp_teams\r\n    {\r\n        uint group_id;\r\n        uint group_size;\r\n        uint prem_amt;\r\n        address[] user_id;\r\n        bool payment_status;\r\n    }\r\n    address public contract_address;\r\n    function getAddress()public\r\n    {\r\n        contract_address=address(this);\r\n    }\r\n \r\n    mapping(uint=>temp_teams) public temp_teamsData;\r\n    //TODO:\r\n    mapping(address=> uint) balances;\r\n    \r\n    function balanceOf() external view returns(uint)\r\n    {\r\n        return address(this).balance;\r\n    }\r\n    //TODO:\r\n   \r\n\r\n     \r\n     uint public id=128965;\r\n     address[]  public temp_user_id; //remember to push into this array to add the team mates.\r\n     address public leader_addr;\r\n     address payable recevier=address(uint160(leader_addr));\r\n     uint public test_val;\r\n     uint public test_val1;\r\n     function enrollTeam(uint size, address id_user) public payable returns(uint)\r\n     {\r\n         for(uint i=0;i<temp_user_id.length;i++)\r\n         {\r\n             temp_user_id.pop();\r\n         }\r\n         if(size<=4)\r\n         {\r\n            balances[msg.sender] += msg.value;\r\n            test_val=msg.value;\r\n\r\n             id++;\r\n             temp_user_id.push(id_user);\r\n             leader_addr=temp_user_id[0];\r\n             temp_teamsData[id]=temp_teams(id,size,40,temp_user_id,true);//payment_status=false\r\n             //TODO:Send ERC Token from the address to the the contract \r\n             getAddress();\r\n    \r\n         }\r\n         return(id);\r\n     }\r\n\r\n     \r\n     temp_teams teams_ref;\r\n     \r\n    \r\n    function joinTeam(uint grp_id, address id_user) public payable\r\n    {\r\n        balances[msg.sender] += msg.value;\r\n        test_val1=msg.value;\r\n\r\n\r\n         teams_ref=temp_teamsData[grp_id];\r\n         \r\n         if(teams_ref.group_size<=4 && teams_ref.payment_status==true)\r\n         {\r\n             temp_user_id.push(id_user);\r\n             teams_ref.user_id=temp_user_id;\r\n             \r\n             //temp_teamsData[grp_id]=teams_ref;\r\n             //TODO:Send ERC Token from the address to the the owner\r\n         }\r\n         \r\n     }\r\n     \r\n     //SEND ERC From address to the addr[0]\r\n     \r\n     address payable[] recepients;\r\n    address payable a;\r\n    address payable b;\r\n\r\n   \r\n    function sendEther(address payable recepient) public{\r\n\r\n        recepient.transfer(2 ether);\r\n        //transfer 1 ether from smart contract to recipient\r\n    }\r\n    \r\n\r\n    \r\n   \r\n \r\n    function() external payable\r\n    {\r\n        \r\n    }\r\n    \r\n    function getBalanceCreate()external view returns(uint)\r\n    {\r\n        return(address(this).balance);\r\n    }\r\n    \r\n     \r\n}",
  "sourcePath": "C:/Users/Indradhar Paka/Blockchain/project/contracts/Insurance.sol",
  "compiler": {
    "name": "solc",
    "version": "0.5.16+commit.9c3226ce.Emscripten.clang"
  },
  "schemaVersion": "3.3.4",
  "updatedAt": "2021-04-17T17:15:01.613Z",
  "networkType": "ethereum",
  "devdoc": {
    "methods": {}
  },
  "userdoc": {
    "methods": {}
  }
}